{
    "_format": "hh-sol-artifact-1",
    "contractName": "ChainBattles",
    "sourceName": "contracts/ChainBattles.sol",
    "abi": [
        {
            "inputs": [],
            "stateMutability": "nonpayable",
            "type": "constructor"
        },
        {
            "inputs": [
                {
                    "internalType": "address",
                    "name": "sender",
                    "type": "address"
                },
                {
                    "internalType": "uint256",
                    "name": "tokenId",
                    "type": "uint256"
                },
                {
                    "internalType": "address",
                    "name": "owner",
                    "type": "address"
                }
            ],
            "name": "ERC721IncorrectOwner",
            "type": "error"
        },
        {
            "inputs": [
                {
                    "internalType": "address",
                    "name": "operator",
                    "type": "address"
                },
                {
                    "internalType": "uint256",
                    "name": "tokenId",
                    "type": "uint256"
                }
            ],
            "name": "ERC721InsufficientApproval",
            "type": "error"
        },
        {
            "inputs": [
                {
                    "internalType": "address",
                    "name": "approver",
                    "type": "address"
                }
            ],
            "name": "ERC721InvalidApprover",
            "type": "error"
        },
        {
            "inputs": [
                {
                    "internalType": "address",
                    "name": "operator",
                    "type": "address"
                }
            ],
            "name": "ERC721InvalidOperator",
            "type": "error"
        },
        {
            "inputs": [
                {
                    "internalType": "address",
                    "name": "owner",
                    "type": "address"
                }
            ],
            "name": "ERC721InvalidOwner",
            "type": "error"
        },
        {
            "inputs": [
                {
                    "internalType": "address",
                    "name": "receiver",
                    "type": "address"
                }
            ],
            "name": "ERC721InvalidReceiver",
            "type": "error"
        },
        {
            "inputs": [
                {
                    "internalType": "address",
                    "name": "sender",
                    "type": "address"
                }
            ],
            "name": "ERC721InvalidSender",
            "type": "error"
        },
        {
            "inputs": [
                {
                    "internalType": "uint256",
                    "name": "tokenId",
                    "type": "uint256"
                }
            ],
            "name": "ERC721NonexistentToken",
            "type": "error"
        },
        {
            "anonymous": false,
            "inputs": [
                {
                    "indexed": true,
                    "internalType": "address",
                    "name": "owner",
                    "type": "address"
                },
                {
                    "indexed": true,
                    "internalType": "address",
                    "name": "approved",
                    "type": "address"
                },
                {
                    "indexed": true,
                    "internalType": "uint256",
                    "name": "tokenId",
                    "type": "uint256"
                }
            ],
            "name": "Approval",
            "type": "event"
        },
        {
            "anonymous": false,
            "inputs": [
                {
                    "indexed": true,
                    "internalType": "address",
                    "name": "owner",
                    "type": "address"
                },
                {
                    "indexed": true,
                    "internalType": "address",
                    "name": "operator",
                    "type": "address"
                },
                {
                    "indexed": false,
                    "internalType": "bool",
                    "name": "approved",
                    "type": "bool"
                }
            ],
            "name": "ApprovalForAll",
            "type": "event"
        },
        {
            "anonymous": false,
            "inputs": [
                {
                    "indexed": false,
                    "internalType": "uint256",
                    "name": "_fromTokenId",
                    "type": "uint256"
                },
                {
                    "indexed": false,
                    "internalType": "uint256",
                    "name": "_toTokenId",
                    "type": "uint256"
                }
            ],
            "name": "BatchMetadataUpdate",
            "type": "event"
        },
        {
            "anonymous": false,
            "inputs": [
                {
                    "indexed": false,
                    "internalType": "uint256",
                    "name": "_tokenId",
                    "type": "uint256"
                }
            ],
            "name": "MetadataUpdate",
            "type": "event"
        },
        {
            "anonymous": false,
            "inputs": [
                {
                    "indexed": true,
                    "internalType": "address",
                    "name": "from",
                    "type": "address"
                },
                {
                    "indexed": true,
                    "internalType": "address",
                    "name": "to",
                    "type": "address"
                },
                {
                    "indexed": true,
                    "internalType": "uint256",
                    "name": "tokenId",
                    "type": "uint256"
                }
            ],
            "name": "Transfer",
            "type": "event"
        },
        {
            "inputs": [
                {
                    "internalType": "address",
                    "name": "to",
                    "type": "address"
                },
                {
                    "internalType": "uint256",
                    "name": "tokenId",
                    "type": "uint256"
                }
            ],
            "name": "approve",
            "outputs": [],
            "stateMutability": "nonpayable",
            "type": "function"
        },
        {
            "inputs": [
                {
                    "internalType": "address",
                    "name": "owner",
                    "type": "address"
                }
            ],
            "name": "balanceOf",
            "outputs": [
                {
                    "internalType": "uint256",
                    "name": "",
                    "type": "uint256"
                }
            ],
            "stateMutability": "view",
            "type": "function"
        },
        {
            "inputs": [
                {
                    "internalType": "uint256",
                    "name": "tokenId",
                    "type": "uint256"
                }
            ],
            "name": "generateCharacter",
            "outputs": [
                {
                    "internalType": "string",
                    "name": "",
                    "type": "string"
                }
            ],
            "stateMutability": "view",
            "type": "function"
        },
        {
            "inputs": [
                {
                    "internalType": "uint256",
                    "name": "tokenId",
                    "type": "uint256"
                }
            ],
            "name": "getApproved",
            "outputs": [
                {
                    "internalType": "address",
                    "name": "",
                    "type": "address"
                }
            ],
            "stateMutability": "view",
            "type": "function"
        },
        {
            "inputs": [
                {
                    "internalType": "uint256",
                    "name": "tokenId",
                    "type": "uint256"
                }
            ],
            "name": "getLevels",
            "outputs": [
                {
                    "internalType": "string",
                    "name": "",
                    "type": "string"
                }
            ],
            "stateMutability": "view",
            "type": "function"
        },
        {
            "inputs": [
                {
                    "internalType": "uint256",
                    "name": "tokenId",
                    "type": "uint256"
                }
            ],
            "name": "getTokenURI",
            "outputs": [
                {
                    "internalType": "string",
                    "name": "",
                    "type": "string"
                }
            ],
            "stateMutability": "view",
            "type": "function"
        },
        {
            "inputs": [
                {
                    "internalType": "address",
                    "name": "owner",
                    "type": "address"
                },
                {
                    "internalType": "address",
                    "name": "operator",
                    "type": "address"
                }
            ],
            "name": "isApprovedForAll",
            "outputs": [
                {
                    "internalType": "bool",
                    "name": "",
                    "type": "bool"
                }
            ],
            "stateMutability": "view",
            "type": "function"
        },
        {
            "inputs": [],
            "name": "mint",
            "outputs": [],
            "stateMutability": "nonpayable",
            "type": "function"
        },
        {
            "inputs": [],
            "name": "name",
            "outputs": [
                {
                    "internalType": "string",
                    "name": "",
                    "type": "string"
                }
            ],
            "stateMutability": "view",
            "type": "function"
        },
        {
            "inputs": [
                {
                    "internalType": "uint256",
                    "name": "tokenId",
                    "type": "uint256"
                }
            ],
            "name": "ownerOf",
            "outputs": [
                {
                    "internalType": "address",
                    "name": "",
                    "type": "address"
                }
            ],
            "stateMutability": "view",
            "type": "function"
        },
        {
            "inputs": [
                {
                    "internalType": "address",
                    "name": "from",
                    "type": "address"
                },
                {
                    "internalType": "address",
                    "name": "to",
                    "type": "address"
                },
                {
                    "internalType": "uint256",
                    "name": "tokenId",
                    "type": "uint256"
                }
            ],
            "name": "safeTransferFrom",
            "outputs": [],
            "stateMutability": "nonpayable",
            "type": "function"
        },
        {
            "inputs": [
                {
                    "internalType": "address",
                    "name": "from",
                    "type": "address"
                },
                {
                    "internalType": "address",
                    "name": "to",
                    "type": "address"
                },
                {
                    "internalType": "uint256",
                    "name": "tokenId",
                    "type": "uint256"
                },
                {
                    "internalType": "bytes",
                    "name": "data",
                    "type": "bytes"
                }
            ],
            "name": "safeTransferFrom",
            "outputs": [],
            "stateMutability": "nonpayable",
            "type": "function"
        },
        {
            "inputs": [
                {
                    "internalType": "address",
                    "name": "operator",
                    "type": "address"
                },
                {
                    "internalType": "bool",
                    "name": "approved",
                    "type": "bool"
                }
            ],
            "name": "setApprovalForAll",
            "outputs": [],
            "stateMutability": "nonpayable",
            "type": "function"
        },
        {
            "inputs": [
                {
                    "internalType": "bytes4",
                    "name": "interfaceId",
                    "type": "bytes4"
                }
            ],
            "name": "supportsInterface",
            "outputs": [
                {
                    "internalType": "bool",
                    "name": "",
                    "type": "bool"
                }
            ],
            "stateMutability": "view",
            "type": "function"
        },
        {
            "inputs": [],
            "name": "symbol",
            "outputs": [
                {
                    "internalType": "string",
                    "name": "",
                    "type": "string"
                }
            ],
            "stateMutability": "view",
            "type": "function"
        },
        {
            "inputs": [
                {
                    "internalType": "uint256",
                    "name": "",
                    "type": "uint256"
                }
            ],
            "name": "tokenIdToLevels",
            "outputs": [
                {
                    "internalType": "uint256",
                    "name": "",
                    "type": "uint256"
                }
            ],
            "stateMutability": "view",
            "type": "function"
        },
        {
            "inputs": [
                {
                    "internalType": "uint256",
                    "name": "tokenId",
                    "type": "uint256"
                }
            ],
            "name": "tokenURI",
            "outputs": [
                {
                    "internalType": "string",
                    "name": "",
                    "type": "string"
                }
            ],
            "stateMutability": "view",
            "type": "function"
        },
        {
            "inputs": [
                {
                    "internalType": "uint256",
                    "name": "tokenId",
                    "type": "uint256"
                }
            ],
            "name": "train",
            "outputs": [],
            "stateMutability": "nonpayable",
            "type": "function"
        },
        {
            "inputs": [
                {
                    "internalType": "address",
                    "name": "from",
                    "type": "address"
                },
                {
                    "internalType": "address",
                    "name": "to",
                    "type": "address"
                },
                {
                    "internalType": "uint256",
                    "name": "tokenId",
                    "type": "uint256"
                }
            ],
            "name": "transferFrom",
            "outputs": [],
            "stateMutability": "nonpayable",
            "type": "function"
        }
    ],
    "bytecode": "0x60806040523480156200001157600080fd5b506040518060400160405280600c81526020017f436861696e426174746c657300000000000000000000000000000000000000008152506040518060400160405280600481526020017f434842530000000000000000000000000000000000000000000000000000000081525081600090816200008f91906200032c565b508060019081620000a191906200032c565b505050600160078190555062000413565b600081519050919050565b7f4e487b7100000000000000000000000000000000000000000000000000000000600052604160045260246000fd5b7f4e487b7100000000000000000000000000000000000000000000000000000000600052602260045260246000fd5b600060028204905060018216806200013457607f821691505b6020821081036200014a5762000149620000ec565b5b50919050565b60008190508160005260206000209050919050565b60006020601f8301049050919050565b600082821b905092915050565b600060088302620001b47fffffffffffffffffffffffffffffffffffffffffffffffffffffffffffffffff8262000175565b620001c0868362000175565b95508019841693508086168417925050509392505050565b6000819050919050565b6000819050919050565b60006200020d620002076200020184620001d8565b620001e2565b620001d8565b9050919050565b6000819050919050565b6200022983620001ec565b62000241620002388262000214565b84845462000182565b825550505050565b600090565b6200025862000249565b620002658184846200021e565b505050565b5b818110156200028d57620002816000826200024e565b6001810190506200026b565b5050565b601f821115620002dc57620002a68162000150565b620002b18462000165565b81016020851015620002c1578190505b620002d9620002d08562000165565b8301826200026a565b50505b505050565b600082821c905092915050565b60006200030160001984600802620002e1565b1980831691505092915050565b60006200031c8383620002ee565b9150826002028217905092915050565b6200033782620000b2565b67ffffffffffffffff811115620003535762000352620000bd565b5b6200035f82546200011b565b6200036c82828562000291565b600060209050601f831160018114620003a457600084156200038f578287015190505b6200039b85826200030e565b8655506200040b565b601f198416620003b48662000150565b60005b82811015620003de57848901518255600182019150602085019450602081019050620003b7565b86831015620003fe5784890151620003fa601f891682620002ee565b8355505b6001600288020188555050505b505050505050565b61324080620004236000396000f3fe608060405234801561001057600080fd5b50600436106101215760003560e01c806342842e0e116100ad578063b88d4fde11610071578063b88d4fde14610318578063c6a4342f14610334578063c87b56dd14610364578063e985e9c514610394578063f43785f9146103c457610121565b806342842e0e146102625780636352211e1461027e57806370a08231146102ae57806395d89b41146102de578063a22cb465146102fc57610121565b80630daefed5116100f45780630daefed5146101c05780631249c58b146101f057806323b872dd146101fa578063368004ed146102165780633bb3a24d1461023257610121565b806301ffc9a71461012657806306fdde0314610156578063081812fc14610174578063095ea7b3146101a4575b600080fd5b610140600480360381019061013b9190611d18565b6103f4565b60405161014d9190611d60565b60405180910390f35b61015e610455565b60405161016b9190611e0b565b60405180910390f35b61018e60048036038101906101899190611e63565b6104e7565b60405161019b9190611ed1565b60405180910390f35b6101be60048036038101906101b99190611f18565b610503565b005b6101da60048036038101906101d59190611e63565b610519565b6040516101e79190611e0b565b60405180910390f35b6101f8610577565b005b610214600480360381019061020f9190611f58565b6105ca565b005b610230600480360381019061022b9190611e63565b6106cc565b005b61024c60048036038101906102479190611e63565b61080b565b6040516102599190611e0b565b60405180910390f35b61027c60048036038101906102779190611f58565b61087d565b005b61029860048036038101906102939190611e63565b61089d565b6040516102a59190611ed1565b60405180910390f35b6102c860048036038101906102c39190611fab565b6108af565b6040516102d59190611fe7565b60405180910390f35b6102e6610969565b6040516102f39190611e0b565b60405180910390f35b6103166004803603810190610311919061202e565b6109fb565b005b610332600480360381019061032d91906121a3565b610a11565b005b61034e60048036038101906103499190611e63565b610a2e565b60405161035b9190611fe7565b60405180910390f35b61037e60048036038101906103799190611e63565b610a46565b60405161038b9190611e0b565b60405180910390f35b6103ae60048036038101906103a99190612226565b610b59565b6040516103bb9190611d60565b60405180910390f35b6103de60048036038101906103d99190611e63565b610bed565b6040516103eb9190611e0b565b60405180910390f35b6000634906490660e01b7bffffffffffffffffffffffffffffffffffffffffffffffffffffffff1916827bffffffffffffffffffffffffffffffffffffffffffffffffffffffff1916148061044e575061044d82610c18565b5b9050919050565b60606000805461046490612295565b80601f016020809104026020016040519081016040528092919081815260200182805461049090612295565b80156104dd5780601f106104b2576101008083540402835291602001916104dd565b820191906000526020600020905b8154815290600101906020018083116104c057829003601f168201915b5050505050905090565b60006104f282610cfa565b506104fc82610d82565b9050919050565b6105158282610510610dbf565b610dc7565b5050565b6060600061052683610bed565b604051602001610536919061272a565b604051602081830303815290604052905061055081610dd9565b60405160200161056091906127fb565b604051602081830303815290604052915050919050565b60006007600081548092919061058c9061284c565b91905055905061059c3382610f4b565b600060086000838152602001908152602001600020819055506105c7816105c28361080b565b610f69565b50565b600073ffffffffffffffffffffffffffffffffffffffff168273ffffffffffffffffffffffffffffffffffffffff160361063c5760006040517f64a0ae920000000000000000000000000000000000000000000000000000000081526004016106339190611ed1565b60405180910390fd5b6000610650838361064b610dbf565b610fc5565b90508373ffffffffffffffffffffffffffffffffffffffff168173ffffffffffffffffffffffffffffffffffffffff16146106c6578382826040517f64283d7b0000000000000000000000000000000000000000000000000000000081526004016106bd93929190612894565b60405180910390fd5b50505050565b600073ffffffffffffffffffffffffffffffffffffffff166106ed826111df565b73ffffffffffffffffffffffffffffffffffffffff1603610743576040517f08c379a000000000000000000000000000000000000000000000000000000000815260040161073a90612917565b60405180910390fd5b3373ffffffffffffffffffffffffffffffffffffffff16610763826111df565b73ffffffffffffffffffffffffffffffffffffffff16146107b9576040517f08c379a00000000000000000000000000000000000000000000000000000000081526004016107b090612983565b60405180910390fd5b6000600860008381526020019081526020016000205490506001816107de91906129a3565b6008600084815260200190815260200160002081905550610807826108028461080b565b610f69565b5050565b606060006108188361121c565b61082184610519565b61082a85610bed565b60405160200161083c93929190612c83565b604051602081830303815290604052905061085681610dd9565b6040516020016108669190612d58565b604051602081830303815290604052915050919050565b61089883838360405180602001604052806000815250610a11565b505050565b60006108a882610cfa565b9050919050565b60008073ffffffffffffffffffffffffffffffffffffffff168273ffffffffffffffffffffffffffffffffffffffff16036109225760006040517f89c62b640000000000000000000000000000000000000000000000000000000081526004016109199190611ed1565b60405180910390fd5b600360008373ffffffffffffffffffffffffffffffffffffffff1673ffffffffffffffffffffffffffffffffffffffff168152602001908152602001600020549050919050565b60606001805461097890612295565b80601f01602080910402602001604051908101604052809291908181526020018280546109a490612295565b80156109f15780601f106109c6576101008083540402835291602001916109f1565b820191906000526020600020905b8154815290600101906020018083116109d457829003601f168201915b5050505050905090565b610a0d610a06610dbf565b83836112ea565b5050565b610a1c8484846105ca565b610a2884848484611459565b50505050565b60086020528060005260406000206000915090505481565b6060610a5182610cfa565b506000600660008481526020019081526020016000208054610a7290612295565b80601f0160208091040260200160405190810160405280929190818152602001828054610a9e90612295565b8015610aeb5780601f10610ac057610100808354040283529160200191610aeb565b820191906000526020600020905b815481529060010190602001808311610ace57829003601f168201915b505050505090506000610afc611610565b90506000815103610b11578192505050610b54565b600082511115610b46578082604051602001610b2e929190612d7a565b60405160208183030381529060405292505050610b54565b610b4f84611627565b925050505b919050565b6000600560008473ffffffffffffffffffffffffffffffffffffffff1673ffffffffffffffffffffffffffffffffffffffff16815260200190815260200160002060008373ffffffffffffffffffffffffffffffffffffffff1673ffffffffffffffffffffffffffffffffffffffff16815260200190815260200160002060009054906101000a900460ff16905092915050565b6060600060086000848152602001908152602001600020549050610c108161121c565b915050919050565b60007f80ac58cd000000000000000000000000000000000000000000000000000000007bffffffffffffffffffffffffffffffffffffffffffffffffffffffff1916827bffffffffffffffffffffffffffffffffffffffffffffffffffffffff19161480610ce357507f5b5e139f000000000000000000000000000000000000000000000000000000007bffffffffffffffffffffffffffffffffffffffffffffffffffffffff1916827bffffffffffffffffffffffffffffffffffffffffffffffffffffffff1916145b80610cf35750610cf282611690565b5b9050919050565b600080610d06836111df565b9050600073ffffffffffffffffffffffffffffffffffffffff168173ffffffffffffffffffffffffffffffffffffffff1603610d7957826040517f7e273289000000000000000000000000000000000000000000000000000000008152600401610d709190611fe7565b60405180910390fd5b80915050919050565b60006004600083815260200190815260200160002060009054906101000a900473ffffffffffffffffffffffffffffffffffffffff169050919050565b600033905090565b610dd483838360016116fa565b505050565b60606000825103610dfb57604051806020016040528060008152509050610f46565b60006040518060600160405280604081526020016131cb6040913990506000600360028551610e2a91906129a3565b610e349190612dcd565b6004610e409190612dfe565b67ffffffffffffffff811115610e5957610e58612078565b5b6040519080825280601f01601f191660200182016040528015610e8b5781602001600182028036833780820191505090505b50905060018201602082018586518701602081018051600082525b82841015610f01576003840193508351603f8160121c168701518653600186019550603f81600c1c168701518653600186019550603f8160061c168701518653600186019550603f8116870151865360018601955050610ea6565b80825260038a510660018114610f1e5760028114610f3157610f39565b603d6001870353603d6002870353610f39565b603d60018703535b5050505050505080925050505b919050565b610f658282604051806020016040528060008152506118bf565b5050565b80600660008481526020019081526020016000209081610f899190612fec565b507ff8e1a15aba9398e019f0b49df1a4fde98ee17ae345cb5f6b5e2c27f5033e8ce782604051610fb99190611fe7565b60405180910390a15050565b600080610fd1846111df565b9050600073ffffffffffffffffffffffffffffffffffffffff168373ffffffffffffffffffffffffffffffffffffffff1614611013576110128184866118db565b5b600073ffffffffffffffffffffffffffffffffffffffff168173ffffffffffffffffffffffffffffffffffffffff16146110a4576110556000856000806116fa565b6001600360008373ffffffffffffffffffffffffffffffffffffffff1673ffffffffffffffffffffffffffffffffffffffff168152602001908152602001600020600082825403925050819055505b600073ffffffffffffffffffffffffffffffffffffffff168573ffffffffffffffffffffffffffffffffffffffff1614611127576001600360008773ffffffffffffffffffffffffffffffffffffffff1673ffffffffffffffffffffffffffffffffffffffff168152602001908152602001600020600082825401925050819055505b846002600086815260200190815260200160002060006101000a81548173ffffffffffffffffffffffffffffffffffffffff021916908373ffffffffffffffffffffffffffffffffffffffff160217905550838573ffffffffffffffffffffffffffffffffffffffff168273ffffffffffffffffffffffffffffffffffffffff167fddf252ad1be2c89b69c2b068fc378daa952ba7f163c4a11628f55a4df523b3ef60405160405180910390a4809150509392505050565b60006002600083815260200190815260200160002060009054906101000a900473ffffffffffffffffffffffffffffffffffffffff169050919050565b60606000600161122b8461199f565b01905060008167ffffffffffffffff81111561124a57611249612078565b5b6040519080825280601f01601f19166020018201604052801561127c5781602001600182028036833780820191505090505b509050600082602001820190505b6001156112df578080600190039150507f3031323334353637383961626364656600000000000000000000000000000000600a86061a8153600a85816112d3576112d2612d9e565b5b0494506000850361128a575b819350505050919050565b600073ffffffffffffffffffffffffffffffffffffffff168273ffffffffffffffffffffffffffffffffffffffff160361135b57816040517f5b08ba180000000000000000000000000000000000000000000000000000000081526004016113529190611ed1565b60405180910390fd5b80600560008573ffffffffffffffffffffffffffffffffffffffff1673ffffffffffffffffffffffffffffffffffffffff16815260200190815260200160002060008473ffffffffffffffffffffffffffffffffffffffff1673ffffffffffffffffffffffffffffffffffffffff16815260200190815260200160002060006101000a81548160ff0219169083151502179055508173ffffffffffffffffffffffffffffffffffffffff168373ffffffffffffffffffffffffffffffffffffffff167f17307eab39ab6107e8899845ad3d59bd9653f200f220920489ca2b5937696c318360405161144c9190611d60565b60405180910390a3505050565b60008373ffffffffffffffffffffffffffffffffffffffff163b111561160a578273ffffffffffffffffffffffffffffffffffffffff1663150b7a0261149d610dbf565b8685856040518563ffffffff1660e01b81526004016114bf9493929190613113565b6020604051808303816000875af19250505080156114fb57506040513d601f19601f820116820180604052508101906114f89190613174565b60015b61157f573d806000811461152b576040519150601f19603f3d011682016040523d82523d6000602084013e611530565b606091505b50600081510361157757836040517f64a0ae9200000000000000000000000000000000000000000000000000000000815260040161156e9190611ed1565b60405180910390fd5b805181602001fd5b63150b7a0260e01b7bffffffffffffffffffffffffffffffffffffffffffffffffffffffff1916817bffffffffffffffffffffffffffffffffffffffffffffffffffffffff19161461160857836040517f64a0ae920000000000000000000000000000000000000000000000000000000081526004016115ff9190611ed1565b60405180910390fd5b505b50505050565b606060405180602001604052806000815250905090565b606061163282610cfa565b50600061163d611610565b9050600081511161165d5760405180602001604052806000815250611688565b806116678461121c565b604051602001611678929190612d7a565b6040516020818303038152906040525b915050919050565b60007f01ffc9a7000000000000000000000000000000000000000000000000000000007bffffffffffffffffffffffffffffffffffffffffffffffffffffffff1916827bffffffffffffffffffffffffffffffffffffffffffffffffffffffff1916149050919050565b80806117335750600073ffffffffffffffffffffffffffffffffffffffff168273ffffffffffffffffffffffffffffffffffffffff1614155b1561186757600061174384610cfa565b9050600073ffffffffffffffffffffffffffffffffffffffff168373ffffffffffffffffffffffffffffffffffffffff16141580156117ae57508273ffffffffffffffffffffffffffffffffffffffff168173ffffffffffffffffffffffffffffffffffffffff1614155b80156117c157506117bf8184610b59565b155b1561180357826040517fa9fbf51f0000000000000000000000000000000000000000000000000000000081526004016117fa9190611ed1565b60405180910390fd5b811561186557838573ffffffffffffffffffffffffffffffffffffffff168273ffffffffffffffffffffffffffffffffffffffff167f8c5be1e5ebec7d5bd14f71427d1e84f3dd0314c0f7b2291e5b200ac8c7c3b92560405160405180910390a45b505b836004600085815260200190815260200160002060006101000a81548173ffffffffffffffffffffffffffffffffffffffff021916908373ffffffffffffffffffffffffffffffffffffffff16021790555050505050565b6118c98383611af2565b6118d66000848484611459565b505050565b6118e6838383611beb565b61199a57600073ffffffffffffffffffffffffffffffffffffffff168373ffffffffffffffffffffffffffffffffffffffff160361195b57806040517f7e2732890000000000000000000000000000000000000000000000000000000081526004016119529190611fe7565b60405180910390fd5b81816040517f177e802f0000000000000000000000000000000000000000000000000000000081526004016119919291906131a1565b60405180910390fd5b505050565b600080600090507a184f03e93ff9f4daa797ed6e38ed64bf6a1f01000000000000000083106119fd577a184f03e93ff9f4daa797ed6e38ed64bf6a1f01000000000000000083816119f3576119f2612d9e565b5b0492506040810190505b6d04ee2d6d415b85acef81000000008310611a3a576d04ee2d6d415b85acef81000000008381611a3057611a2f612d9e565b5b0492506020810190505b662386f26fc100008310611a6957662386f26fc100008381611a5f57611a5e612d9e565b5b0492506010810190505b6305f5e1008310611a92576305f5e1008381611a8857611a87612d9e565b5b0492506008810190505b6127108310611ab7576127108381611aad57611aac612d9e565b5b0492506004810190505b60648310611ada5760648381611ad057611acf612d9e565b5b0492506002810190505b600a8310611ae9576001810190505b80915050919050565b600073ffffffffffffffffffffffffffffffffffffffff168273ffffffffffffffffffffffffffffffffffffffff1603611b645760006040517f64a0ae92000000000000000000000000000000000000000000000000000000008152600401611b5b9190611ed1565b60405180910390fd5b6000611b7283836000610fc5565b9050600073ffffffffffffffffffffffffffffffffffffffff168173ffffffffffffffffffffffffffffffffffffffff1614611be65760006040517f73c6ac6e000000000000000000000000000000000000000000000000000000008152600401611bdd9190611ed1565b60405180910390fd5b505050565b60008073ffffffffffffffffffffffffffffffffffffffff168373ffffffffffffffffffffffffffffffffffffffff1614158015611ca357508273ffffffffffffffffffffffffffffffffffffffff168473ffffffffffffffffffffffffffffffffffffffff161480611c645750611c638484610b59565b5b80611ca257508273ffffffffffffffffffffffffffffffffffffffff16611c8a83610d82565b73ffffffffffffffffffffffffffffffffffffffff16145b5b90509392505050565b6000604051905090565b600080fd5b600080fd5b60007fffffffff0000000000000000000000000000000000000000000000000000000082169050919050565b611cf581611cc0565b8114611d0057600080fd5b50565b600081359050611d1281611cec565b92915050565b600060208284031215611d2e57611d2d611cb6565b5b6000611d3c84828501611d03565b91505092915050565b60008115159050919050565b611d5a81611d45565b82525050565b6000602082019050611d756000830184611d51565b92915050565b600081519050919050565b600082825260208201905092915050565b60005b83811015611db5578082015181840152602081019050611d9a565b60008484015250505050565b6000601f19601f8301169050919050565b6000611ddd82611d7b565b611de78185611d86565b9350611df7818560208601611d97565b611e0081611dc1565b840191505092915050565b60006020820190508181036000830152611e258184611dd2565b905092915050565b6000819050919050565b611e4081611e2d565b8114611e4b57600080fd5b50565b600081359050611e5d81611e37565b92915050565b600060208284031215611e7957611e78611cb6565b5b6000611e8784828501611e4e565b91505092915050565b600073ffffffffffffffffffffffffffffffffffffffff82169050919050565b6000611ebb82611e90565b9050919050565b611ecb81611eb0565b82525050565b6000602082019050611ee66000830184611ec2565b92915050565b611ef581611eb0565b8114611f0057600080fd5b50565b600081359050611f1281611eec565b92915050565b60008060408385031215611f2f57611f2e611cb6565b5b6000611f3d85828601611f03565b9250506020611f4e85828601611e4e565b9150509250929050565b600080600060608486031215611f7157611f70611cb6565b5b6000611f7f86828701611f03565b9350506020611f9086828701611f03565b9250506040611fa186828701611e4e565b9150509250925092565b600060208284031215611fc157611fc0611cb6565b5b6000611fcf84828501611f03565b91505092915050565b611fe181611e2d565b82525050565b6000602082019050611ffc6000830184611fd8565b92915050565b61200b81611d45565b811461201657600080fd5b50565b60008135905061202881612002565b92915050565b6000806040838503121561204557612044611cb6565b5b600061205385828601611f03565b925050602061206485828601612019565b9150509250929050565b600080fd5b600080fd5b7f4e487b7100000000000000000000000000000000000000000000000000000000600052604160045260246000fd5b6120b082611dc1565b810181811067ffffffffffffffff821117156120cf576120ce612078565b5b80604052505050565b60006120e2611cac565b90506120ee82826120a7565b919050565b600067ffffffffffffffff82111561210e5761210d612078565b5b61211782611dc1565b9050602081019050919050565b82818337600083830152505050565b6000612146612141846120f3565b6120d8565b90508281526020810184848401111561216257612161612073565b5b61216d848285612124565b509392505050565b600082601f83011261218a5761218961206e565b5b813561219a848260208601612133565b91505092915050565b600080600080608085870312156121bd576121bc611cb6565b5b60006121cb87828801611f03565b94505060206121dc87828801611f03565b93505060406121ed87828801611e4e565b925050606085013567ffffffffffffffff81111561220e5761220d611cbb565b5b61221a87828801612175565b91505092959194509250565b6000806040838503121561223d5761223c611cb6565b5b600061224b85828601611f03565b925050602061225c85828601611f03565b9150509250929050565b7f4e487b7100000000000000000000000000000000000000000000000000000000600052602260045260246000fd5b600060028204905060018216806122ad57607f821691505b6020821081036122c0576122bf612266565b5b50919050565b600081905092915050565b7f3c73766720786d6c6e733d22687474703a2f2f7777772e77332e6f72672f323060008201527f30302f73766722207072657365727665417370656374526174696f3d22784d6960208201527f6e594d696e206d656574222076696577426f783d22302030203335302033353060408201527f223e000000000000000000000000000000000000000000000000000000000000606082015250565b60006123796062836122c6565b9150612384826122d1565b606282019050919050565b7f3c7374796c653e2e62617365207b2066696c6c3a2077686974653b20666f6e7460008201527f2d66616d696c793a2073657269663b20666f6e742d73697a653a20313470783b60208201527f207d3c2f7374796c653e00000000000000000000000000000000000000000000604082015250565b6000612411604a836122c6565b915061241c8261238f565b604a82019050919050565b7f3c726563742077696474683d223130302522206865696768743d22313030252260008201527f2066696c6c3d22626c61636b22202f3e00000000000000000000000000000000602082015250565b60006124836030836122c6565b915061248e82612427565b603082019050919050565b7f3c7465787420783d223530252220793d223430252220636c6173733d2262617360008201527f652220646f6d696e616e742d626173656c696e653d226d6964646c652220746560208201527f78742d616e63686f723d226d6964646c65223e00000000000000000000000000604082015250565b600061251b6053836122c6565b915061252682612499565b605382019050919050565b7f57617272696f7200000000000000000000000000000000000000000000000000600082015250565b60006125676007836122c6565b915061257282612531565b600782019050919050565b7f3c2f746578743e00000000000000000000000000000000000000000000000000600082015250565b60006125b36007836122c6565b91506125be8261257d565b600782019050919050565b7f3c7465787420783d223530252220793d223530252220636c6173733d2262617360008201527f652220646f6d696e616e742d626173656c696e653d226d6964646c652220746560208201527f78742d616e63686f723d226d6964646c65223e00000000000000000000000000604082015250565b600061264b6053836122c6565b9150612656826125c9565b605382019050919050565b7f4c6576656c733a20000000000000000000000000000000000000000000000000600082015250565b60006126976008836122c6565b91506126a282612661565b600882019050919050565b60006126b882611d7b565b6126c281856122c6565b93506126d2818560208601611d97565b80840191505092915050565b7f3c2f7376673e0000000000000000000000000000000000000000000000000000600082015250565b60006127146006836122c6565b915061271f826126de565b600682019050919050565b60006127358261236c565b915061274082612404565b915061274b82612476565b91506127568261250e565b91506127618261255a565b915061276c826125a6565b91506127778261263e565b91506127828261268a565b915061278e82846126ad565b9150612799826125a6565b91506127a482612707565b915081905092915050565b7f646174613a696d6167652f7376672b786d6c3b6261736536342c000000000000600082015250565b60006127e5601a836122c6565b91506127f0826127af565b601a82019050919050565b6000612806826127d8565b915061281282846126ad565b915081905092915050565b7f4e487b7100000000000000000000000000000000000000000000000000000000600052601160045260246000fd5b600061285782611e2d565b91507fffffffffffffffffffffffffffffffffffffffffffffffffffffffffffffffff82036128895761288861281d565b5b600182019050919050565b60006060820190506128a96000830186611ec2565b6128b66020830185611fd8565b6128c36040830184611ec2565b949350505050565b7f557365206578697374696e6720746f6b656e2100000000000000000000000000600082015250565b6000612901601383611d86565b915061290c826128cb565b602082019050919050565b60006020820190508181036000830152612930816128f4565b9050919050565b7f596f7520646f6e2774206f776e207468697320746f6b656e2100000000000000600082015250565b600061296d601983611d86565b915061297882612937565b602082019050919050565b6000602082019050818103600083015261299c81612960565b9050919050565b60006129ae82611e2d565b91506129b983611e2d565b92508282019050808211156129d1576129d061281d565b5b92915050565b7f7b00000000000000000000000000000000000000000000000000000000000000600082015250565b6000612a0d6001836122c6565b9150612a18826129d7565b600182019050919050565b7f226e616d65223a2022436861696e20426174746c657320230000000000000000600082015250565b6000612a596018836122c6565b9150612a6482612a23565b601882019050919050565b7f222c000000000000000000000000000000000000000000000000000000000000600082015250565b6000612aa56002836122c6565b9150612ab082612a6f565b600282019050919050565b7f226465736372697074696f6e223a2022426174746c6573206f6e20636861696e60008201527f222c000000000000000000000000000000000000000000000000000000000000602082015250565b6000612b176022836122c6565b9150612b2282612abb565b602282019050919050565b7f22696d616765223a202200000000000000000000000000000000000000000000600082015250565b6000612b63600a836122c6565b9150612b6e82612b2d565b600a82019050919050565b7f2200000000000000000000000000000000000000000000000000000000000000600082015250565b6000612baf6001836122c6565b9150612bba82612b79565b600182019050919050565b7f2261747472696275746573223a205b7b2274726169745f74797065223a20224c60008201527f6576656c222c202276616c7565223a2022000000000000000000000000000000602082015250565b6000612c216031836122c6565b9150612c2c82612bc5565b603182019050919050565b7f227d5d7d00000000000000000000000000000000000000000000000000000000600082015250565b6000612c6d6004836122c6565b9150612c7882612c37565b600482019050919050565b6000612c8e82612a00565b9150612c9982612a4c565b9150612ca582866126ad565b9150612cb082612a98565b9150612cbb82612b0a565b9150612cc682612b56565b9150612cd282856126ad565b9150612cdd82612ba2565b9150612ce882612c14565b9150612cf482846126ad565b9150612cff82612c60565b9150819050949350505050565b7f646174613a6170706c69636174696f6e2f6a736f6e3b6261736536342c000000600082015250565b6000612d42601d836122c6565b9150612d4d82612d0c565b601d82019050919050565b6000612d6382612d35565b9150612d6f82846126ad565b915081905092915050565b6000612d8682856126ad565b9150612d9282846126ad565b91508190509392505050565b7f4e487b7100000000000000000000000000000000000000000000000000000000600052601260045260246000fd5b6000612dd882611e2d565b9150612de383611e2d565b925082612df357612df2612d9e565b5b828204905092915050565b6000612e0982611e2d565b9150612e1483611e2d565b9250828202612e2281611e2d565b91508282048414831517612e3957612e3861281d565b5b5092915050565b60008190508160005260206000209050919050565b60006020601f8301049050919050565b600082821b905092915050565b600060088302612ea27fffffffffffffffffffffffffffffffffffffffffffffffffffffffffffffffff82612e65565b612eac8683612e65565b95508019841693508086168417925050509392505050565b6000819050919050565b6000612ee9612ee4612edf84611e2d565b612ec4565b611e2d565b9050919050565b6000819050919050565b612f0383612ece565b612f17612f0f82612ef0565b848454612e72565b825550505050565b600090565b612f2c612f1f565b612f37818484612efa565b505050565b5b81811015612f5b57612f50600082612f24565b600181019050612f3d565b5050565b601f821115612fa057612f7181612e40565b612f7a84612e55565b81016020851015612f89578190505b612f9d612f9585612e55565b830182612f3c565b50505b505050565b600082821c905092915050565b6000612fc360001984600802612fa5565b1980831691505092915050565b6000612fdc8383612fb2565b9150826002028217905092915050565b612ff582611d7b565b67ffffffffffffffff81111561300e5761300d612078565b5b6130188254612295565b613023828285612f5f565b600060209050601f8311600181146130565760008415613044578287015190505b61304e8582612fd0565b8655506130b6565b601f19841661306486612e40565b60005b8281101561308c57848901518255600182019150602085019450602081019050613067565b868310156130a957848901516130a5601f891682612fb2565b8355505b6001600288020188555050505b505050505050565b600081519050919050565b600082825260208201905092915050565b60006130e5826130be565b6130ef81856130c9565b93506130ff818560208601611d97565b61310881611dc1565b840191505092915050565b60006080820190506131286000830187611ec2565b6131356020830186611ec2565b6131426040830185611fd8565b818103606083015261315481846130da565b905095945050505050565b60008151905061316e81611cec565b92915050565b60006020828403121561318a57613189611cb6565b5b60006131988482850161315f565b91505092915050565b60006040820190506131b66000830185611ec2565b6131c36020830184611fd8565b939250505056fe4142434445464748494a4b4c4d4e4f505152535455565758595a6162636465666768696a6b6c6d6e6f707172737475767778797a303132333435363738392b2fa2646970667358221220293b80238da6811da681dc9bf1b0f4432e7fd008c696b2f99ace05ebeb02532764736f6c63430008180033",
    "linkReferences": {},
    "deployedLinkReferences": {}
}